{
  "_format": "hh-sol-artifact-1",
  "contractName": "ChallengePool",
  "sourceName": "contracts/ChallengePool.sol",
  "abi": [
    {
      "inputs": [
        {
          "internalType": "address",
          "name": "_topicRegistry",
          "type": "address"
        }
      ],
      "stateMutability": "nonpayable",
      "type": "constructor"
    },
    {
      "anonymous": false,
      "inputs": [
        {
          "indexed": true,
          "internalType": "address",
          "name": "previousOwner",
          "type": "address"
        },
        {
          "indexed": true,
          "internalType": "address",
          "name": "newOwner",
          "type": "address"
        }
      ],
      "name": "OwnershipTransferred",
      "type": "event"
    },
    {
      "anonymous": false,
      "inputs": [
        {
          "indexed": true,
          "internalType": "uint256",
          "name": "challengeId",
          "type": "uint256"
        }
      ],
      "name": "PoolChallenge",
      "type": "event"
    },
    {
      "inputs": [],
      "name": "accumulatedFees",
      "outputs": [
        {
          "internalType": "uint256",
          "name": "",
          "type": "uint256"
        }
      ],
      "stateMutability": "view",
      "type": "function"
    },
    {
      "inputs": [
        {
          "internalType": "uint256[]",
          "name": "_challengeIds",
          "type": "uint256[]"
        }
      ],
      "name": "batchCloseChallenge",
      "outputs": [],
      "stateMutability": "nonpayable",
      "type": "function"
    },
    {
      "inputs": [
        {
          "internalType": "uint256",
          "name": "",
          "type": "uint256"
        }
      ],
      "name": "challengePools",
      "outputs": [
        {
          "internalType": "uint256",
          "name": "topicId",
          "type": "uint256"
        },
        {
          "internalType": "uint256",
          "name": "stake",
          "type": "uint256"
        },
        {
          "internalType": "uint256",
          "name": "createdAt",
          "type": "uint256"
        },
        {
          "internalType": "uint256",
          "name": "maturity",
          "type": "uint256"
        },
        {
          "internalType": "enum IChallengePool.PoolState",
          "name": "state",
          "type": "uint8"
        },
        {
          "internalType": "int256",
          "name": "results",
          "type": "int256"
        },
        {
          "internalType": "string",
          "name": "params",
          "type": "string"
        }
      ],
      "stateMutability": "view",
      "type": "function"
    },
    {
      "inputs": [
        {
          "internalType": "uint256",
          "name": "_topicId",
          "type": "uint256"
        },
        {
          "internalType": "uint256",
          "name": "_maturity",
          "type": "uint256"
        },
        {
          "internalType": "string",
          "name": "_params",
          "type": "string"
        },
        {
          "internalType": "int256",
          "name": "_proposal",
          "type": "int256"
        }
      ],
      "name": "createChallenge",
      "outputs": [
        {
          "internalType": "uint256",
          "name": "",
          "type": "uint256"
        }
      ],
      "stateMutability": "payable",
      "type": "function"
    },
    {
      "inputs": [],
      "name": "feeAddress",
      "outputs": [
        {
          "internalType": "address",
          "name": "",
          "type": "address"
        }
      ],
      "stateMutability": "view",
      "type": "function"
    },
    {
      "inputs": [],
      "name": "feePercent",
      "outputs": [
        {
          "internalType": "uint256",
          "name": "",
          "type": "uint256"
        }
      ],
      "stateMutability": "view",
      "type": "function"
    },
    {
      "inputs": [
        {
          "internalType": "uint256",
          "name": "_challengeId",
          "type": "uint256"
        }
      ],
      "name": "getChallenge",
      "outputs": [
        {
          "components": [
            {
              "internalType": "uint256",
              "name": "topicId",
              "type": "uint256"
            },
            {
              "internalType": "uint256",
              "name": "stake",
              "type": "uint256"
            },
            {
              "internalType": "uint256",
              "name": "createdAt",
              "type": "uint256"
            },
            {
              "internalType": "uint256",
              "name": "maturity",
              "type": "uint256"
            },
            {
              "internalType": "enum IChallengePool.PoolState",
              "name": "state",
              "type": "uint8"
            },
            {
              "components": [
                {
                  "internalType": "address",
                  "name": "participant",
                  "type": "address"
                },
                {
                  "internalType": "int256",
                  "name": "proposal",
                  "type": "int256"
                }
              ],
              "internalType": "struct IChallengePool.Participant[]",
              "name": "participants",
              "type": "tuple[]"
            },
            {
              "internalType": "address[]",
              "name": "winners",
              "type": "address[]"
            },
            {
              "internalType": "address[]",
              "name": "losers",
              "type": "address[]"
            },
            {
              "internalType": "int256",
              "name": "results",
              "type": "int256"
            },
            {
              "internalType": "string",
              "name": "params",
              "type": "string"
            }
          ],
          "internalType": "struct IChallengePool.Challenge",
          "name": "",
          "type": "tuple"
        }
      ],
      "stateMutability": "view",
      "type": "function"
    },
    {
      "inputs": [],
      "name": "getMaturePools",
      "outputs": [
        {
          "internalType": "uint256[]",
          "name": "maturedPools",
          "type": "uint256[]"
        }
      ],
      "stateMutability": "view",
      "type": "function"
    },
    {
      "inputs": [],
      "name": "getOpenPools",
      "outputs": [
        {
          "internalType": "uint256[]",
          "name": "",
          "type": "uint256[]"
        }
      ],
      "stateMutability": "view",
      "type": "function"
    },
    {
      "inputs": [
        {
          "internalType": "uint256",
          "name": "challengeId",
          "type": "uint256"
        }
      ],
      "name": "getTopic",
      "outputs": [
        {
          "components": [
            {
              "internalType": "string",
              "name": "title",
              "type": "string"
            },
            {
              "internalType": "string",
              "name": "description",
              "type": "string"
            },
            {
              "internalType": "address",
              "name": "maintainer",
              "type": "address"
            },
            {
              "internalType": "address",
              "name": "evaluator",
              "type": "address"
            },
            {
              "internalType": "enum ITopicRegistry.TopicState",
              "name": "state",
              "type": "uint8"
            }
          ],
          "internalType": "struct ITopicRegistry.Topic",
          "name": "",
          "type": "tuple"
        }
      ],
      "stateMutability": "view",
      "type": "function"
    },
    {
      "inputs": [
        {
          "internalType": "uint256",
          "name": "_challengeId",
          "type": "uint256"
        }
      ],
      "name": "getTopicChallenge",
      "outputs": [
        {
          "components": [
            {
              "internalType": "string",
              "name": "title",
              "type": "string"
            },
            {
              "internalType": "string",
              "name": "description",
              "type": "string"
            },
            {
              "internalType": "address",
              "name": "maintainer",
              "type": "address"
            },
            {
              "internalType": "address",
              "name": "evaluator",
              "type": "address"
            },
            {
              "internalType": "enum ITopicRegistry.TopicState",
              "name": "state",
              "type": "uint8"
            }
          ],
          "internalType": "struct ITopicRegistry.Topic",
          "name": "topic",
          "type": "tuple"
        },
        {
          "components": [
            {
              "internalType": "uint256",
              "name": "topicId",
              "type": "uint256"
            },
            {
              "internalType": "uint256",
              "name": "stake",
              "type": "uint256"
            },
            {
              "internalType": "uint256",
              "name": "createdAt",
              "type": "uint256"
            },
            {
              "internalType": "uint256",
              "name": "maturity",
              "type": "uint256"
            },
            {
              "internalType": "enum IChallengePool.PoolState",
              "name": "state",
              "type": "uint8"
            },
            {
              "components": [
                {
                  "internalType": "address",
                  "name": "participant",
                  "type": "address"
                },
                {
                  "internalType": "int256",
                  "name": "proposal",
                  "type": "int256"
                }
              ],
              "internalType": "struct IChallengePool.Participant[]",
              "name": "participants",
              "type": "tuple[]"
            },
            {
              "internalType": "address[]",
              "name": "winners",
              "type": "address[]"
            },
            {
              "internalType": "address[]",
              "name": "losers",
              "type": "address[]"
            },
            {
              "internalType": "int256",
              "name": "results",
              "type": "int256"
            },
            {
              "internalType": "string",
              "name": "params",
              "type": "string"
            }
          ],
          "internalType": "struct IChallengePool.Challenge",
          "name": "challenge",
          "type": "tuple"
        }
      ],
      "stateMutability": "view",
      "type": "function"
    },
    {
      "inputs": [
        {
          "internalType": "uint256",
          "name": "_challengeId",
          "type": "uint256"
        },
        {
          "internalType": "int256",
          "name": "_proposal",
          "type": "int256"
        }
      ],
      "name": "joinChallenge",
      "outputs": [],
      "stateMutability": "payable",
      "type": "function"
    },
    {
      "inputs": [],
      "name": "joiningThreshold",
      "outputs": [
        {
          "internalType": "uint256",
          "name": "",
          "type": "uint256"
        }
      ],
      "stateMutability": "view",
      "type": "function"
    },
    {
      "inputs": [],
      "name": "minMaturity",
      "outputs": [
        {
          "internalType": "uint256",
          "name": "",
          "type": "uint256"
        }
      ],
      "stateMutability": "view",
      "type": "function"
    },
    {
      "inputs": [],
      "name": "owner",
      "outputs": [
        {
          "internalType": "address",
          "name": "",
          "type": "address"
        }
      ],
      "stateMutability": "view",
      "type": "function"
    },
    {
      "inputs": [],
      "name": "participantsLimit",
      "outputs": [
        {
          "internalType": "uint256",
          "name": "",
          "type": "uint256"
        }
      ],
      "stateMutability": "view",
      "type": "function"
    },
    {
      "inputs": [],
      "name": "renounceOwnership",
      "outputs": [],
      "stateMutability": "nonpayable",
      "type": "function"
    },
    {
      "inputs": [
        {
          "internalType": "address",
          "name": "_feeAddress",
          "type": "address"
        }
      ],
      "name": "setFeeAddress",
      "outputs": [],
      "stateMutability": "nonpayable",
      "type": "function"
    },
    {
      "inputs": [
        {
          "internalType": "uint256",
          "name": "_feePercent",
          "type": "uint256"
        }
      ],
      "name": "setFeePercent",
      "outputs": [],
      "stateMutability": "nonpayable",
      "type": "function"
    },
    {
      "inputs": [
        {
          "internalType": "uint256",
          "name": "_joiningThreshold",
          "type": "uint256"
        }
      ],
      "name": "setJoiningThreshold",
      "outputs": [],
      "stateMutability": "nonpayable",
      "type": "function"
    },
    {
      "inputs": [
        {
          "internalType": "uint256",
          "name": "_minMaturity",
          "type": "uint256"
        }
      ],
      "name": "setMinMaturity",
      "outputs": [],
      "stateMutability": "nonpayable",
      "type": "function"
    },
    {
      "inputs": [
        {
          "internalType": "uint256",
          "name": "_participantsLimit",
          "type": "uint256"
        }
      ],
      "name": "setParticipantsLimit",
      "outputs": [],
      "stateMutability": "nonpayable",
      "type": "function"
    },
    {
      "inputs": [
        {
          "internalType": "uint256",
          "name": "_value",
          "type": "uint256"
        }
      ],
      "name": "stakeFee",
      "outputs": [
        {
          "internalType": "uint256",
          "name": "stake",
          "type": "uint256"
        },
        {
          "internalType": "uint256",
          "name": "fee",
          "type": "uint256"
        }
      ],
      "stateMutability": "view",
      "type": "function"
    },
    {
      "inputs": [],
      "name": "topicRegistry",
      "outputs": [
        {
          "internalType": "address",
          "name": "",
          "type": "address"
        }
      ],
      "stateMutability": "view",
      "type": "function"
    },
    {
      "inputs": [
        {
          "internalType": "address",
          "name": "newOwner",
          "type": "address"
        }
      ],
      "name": "transferOwnership",
      "outputs": [],
      "stateMutability": "nonpayable",
      "type": "function"
    },
    {
      "inputs": [],
      "name": "withdrawFees",
      "outputs": [],
      "stateMutability": "nonpayable",
      "type": "function"
    }
  ],
  "bytecode": "0x60a0346100d057601f61250538819003918201601f19168301916001600160401b038311848410176100d5578084926020946040528339810103126100d057516001600160a01b039081811681036100d0576000543360018060a01b0319821617600055604051923391167f8be0079c531659141344cd1fd0a4f28419497f9722a3daafe3b4186f6b6457e0600080a360b46007556003600855600980556103e8600a5560805261241990816100ec8239608051818181610276015281816105d40152818161161e01526121ab0152f35b600080fd5b634e487b7160e01b600052604160045260246000fdfe6080604052600436101561001257600080fd5b60003560e01c806307e44bd9146117445780630e1e3413146117265780631bdd4b74146116f357806341275358146116ca578063476343ee1461164d5780635055735b14611608578063587f5ed7146115ea5780635c4cb5991461159d57806360fe4aed1461157c578063715018a61461152357806371658896146114f05780637ce3489b146114cf5780637fd6f15c146114b1578063814c36a4146114895780638705fcd4146114455780638da5cb5b1461141c5780638f6dcb1614611381578063a6660fdb14611363578063b56c6bf2146112ff578063c16b93d5146112de578063cca2d187146112c0578063d47a40f21461129f578063dd5a5b6914610c16578063df08b1e414610548578063e46e745a146102025763f2fde38b1461013a57600080fd5b346101fd5760203660031901126101fd576004356001600160a01b03818116918290036101fd57610169611bd2565b81156101a9576000548260018060a01b0319821617600055167f8be0079c531659141344cd1fd0a4f28419497f9722a3daafe3b4186f6b6457e0600080a3005b60405162461bcd60e51b815260206004820152602660248201527f4f776e61626c653a206e6577206f776e657220697320746865207a65726f206160448201526564647265737360d01b6064820152608490fd5b600080fd5b60403660031901126101fd5760248035600435610220341515611c2a565b806000526002906020908282526040600020600961025182549261024a6040518094819301611a97565b0382611b7f565b6040516338b2c44b60e11b815260048101929092526001600160a01b039060008389817f000000000000000000000000000000000000000000000000000000000000000086165afa91821561051957606086936102d795600091610525575b5001511660405180809581946301511d2360e31b83526040600484015260448301906118f9565b8a8c83015203915afa8015610519576102f8916000916104ec575b50611daa565b8060005282825261032c600361032661031d6040600020878101549384910154611f1a565b60085490611f27565b90611d85565b42101561049c57806000528282526005604060002001546009541115610458578060005282825260016040600020015434106103fa576040519361036f85611b2d565b338552828501526000525260056040600020018054600160401b8110156103e55761039f91600182018155611efe565b6103d057815181546001600160a01b0319166001600160a01b0391909116178155602090910151600190910155005b005b82634e487b7160e01b60005260006004526000fd5b83634e487b7160e01b60005260416004526000fd5b60405162461bcd60e51b8152600481018390526031818701527f496e76616c6964207374616b6520616d6f756e74206c657373207468616e207060448201527037b7b61039ba30b5b29030b6b7bab73a1760791b6064820152608490fd5b60405162461bcd60e51b815260048101839052601d818701527f5061727469636970616e7473206c696d6974732065786365656465642e0000006044820152606490fd5b60405162461bcd60e51b8152600481018390526023818701527f4a6f696e696e672054696d652045786365656465642c20506f6f6c204c6f636b60448201526232b21760e91b6064820152608490fd5b61050c9150843d8611610512575b6105048183611b7f565b810190611d92565b876102f2565b503d6104fa565b6040513d6000823e3d90fd5b61054291503d806000833e61053a8183611b7f565b810190611ce5565b8b6102b0565b60803660031901126101fd576044356001600160401b0381116101fd57366023820112156101fd57806004013561057e81611bb7565b9161058c6040519384611b7f565b81835236602483830101116101fd57816000926024602093018386013783010152606435906105bc341515611c2a565b6040516338b2c44b60e11b80825260048035908301527f00000000000000000000000000000000000000000000000000000000000000006001600160a01b031691600081602481865afa801561051957608091600091610bfb575b5001516002811015610b1157610bc45761063360075442611d85565b60243510610b8657600090602460405180948193825260043560048301525afa90811561051957600091610b6b575b5060600151604080516301511d2360e31b815260048101919091529060209082906001600160a01b0316818061069b60448201886118f9565b88602483015203915afa8015610519576106bc91600091610b4c5750611daa565b604051916106c983611b2d565b3383526020830152604051916106de83611b2d565b6001835260005b60208110610b2757506106f783611df6565b5261070182611df6565b506040519161070f83611b48565b600435835234602084015242604084015260243560608401526000608084015260a0830152606060c0830152606060e0830152600061010083015261012082015260015460005260026020526040600020815181556020820151600182015560408201516002820155606082015160038201556004810160808301516003811015610b115760ff8019835416911617905560a0820151805190600160401b82116109df576005830154826005850155808310610aaa575b506020016005830160005260206000206000915b838310610a6c57858560c08201518051906001600160401b0382116109df57600160401b82116109df576020906006840154836006860155808410610a4c575b500160068301600052602060002060005b838110610a2f5785856007810160e0830151908151916001600160401b0383116109df57600160401b83116109df576020908254848455808510610a12575b500190600052602060002060005b8381106109f5576101008601516008860155610120860151805160098701906001600160401b0381116109df576108af8254611a5d565b601f81116109a2575b50602092601f821160011461093e5792819293600092610933575b50508160011b916000199060031b1c19161790555b6108f3600154611e81565b506020610927600154807f39010abb9b64a95d0b401ed2bb35080b8a120dd04aed1e72d8db12dbb6af4065600080a2611e57565b80600155604051908152f35b0151905083806108d3565b601f198216938360005260206000209160005b86811061098a5750836001959610610971575b505050811b0190556108e8565b015160001960f88460031b161c19169055838080610964565b91926020600181928685015181550194019201610951565b6109cf90836000526020600020601f840160051c810191602085106109d5575b601f0160051c0190611e40565b836108b8565b90915081906109c2565b634e487b7160e01b600052604160045260246000fd5b82516001600160a01b031681830155602090920191600101610878565b610a29908460005285846000209182019101611e40565b8661086a565b82516001600160a01b03168183015560209092019160010161082b565b610a66906006860160005284846000209182019101611e40565b8561081a565b8051805183546001600160a01b0319166001600160a01b039190911617835560209081015160018481019190915591600291019201920191906107da565b6001600160ff1b038181168203610afb5783168303610afb576005840160005260206000208360011b81015b8260011b82018110610ae95750506107c6565b60008082556001820155600201610ad6565b634e487b7160e01b600052601160045260246000fd5b634e487b7160e01b600052602160045260246000fd5b602090604051610b3681611b2d565b60008152600083820152828287010152016106e5565b610b65915060203d602011610512576105048183611b7f565b846102f2565b610b8091503d806000833e61053a8183611b7f565b83610662565b60405162461bcd60e51b815260206004820152601660248201527524b73b30b634b21026b0ba3ab934ba3c903230ba329760511b6044820152606490fd5b60405162461bcd60e51b815260206004820152600f60248201526e24b730b1ba34bb32903a37b834b19760891b6044820152606490fd5b610c1091503d806000833e61053a8183611b7f565b86610617565b346101fd5760203660031901126101fd576004356001600160401b0381116101fd57366023820112156101fd57806004013590610c5282611ba0565b91610c606040519384611b7f565b8083526024602084019160051b830101913683116101fd57602401905b82821061128f578360005b81518110156103ce57610c9b8183611e19565b5190816000526002602052604060002060038101544281101561124f5760ff600483015416906003821015610b115781611216574792600181015492600582015493610ce78582611e2d565b94610d3e6001600160a01b036060610cfe8c612177565b01511693604051968794632b5dfbc560e21b86526020600487015287546024870152604486015260028701546064860152608485015260a484019061188c565b61014060c483015280610164830152610184820190600585016000526020600020906000905b8082106111e657505050918180610dc7600095610da8610d9460231992838682030160e487015260068b01611fad565b828582030161010486015260078a01611fad565b9060088901546101248501528382030161014484015260098801611a97565b03915afa9160008360009260009561117b575b50610f3b5750509050600190600060033d11610f29575b6308c379a014610e9f575b5061051957610e0d905b4792611f1a565b11610e4f5781610e1f610e4a93612061565b507f39010abb9b64a95d0b401ed2bb35080b8a120dd04aed1e72d8db12dbb6af4065600080a2611e57565b610c88565b60405162461bcd60e51b815260206004820152602260248201527f4368616c6c656e6765205061796f757420496e76617269616e74204661696c65604482015261321760f11b6064820152608490fd5b610ea7611ff3565b15610dfc5760048101805460ff1916600217905560009690959493929150865b6005870154811015610f1b576000808080610ee58560058d01611efe565b505460018c0154906001600160a01b0316828215610f12575bf11561051957610f0d90611e57565b610ec7565b506108fc610efe565b509590919293945086610dfc565b5060046000803e60005160e01c610df1565b600883015580516001600160401b0381116109df57600160401b81116109df57600783015481600785015580821061115a575b506020820160078401600052602060002060005b83811061113d575050505082516001600160401b0381116109df57600160401b81116109df57600683015481600685015580821061111c575b506020840160068401600052602060002060005b8381106110ff575050505060048201805460ff191660011790558251611099575b51908115158061108f575b61100c575b505050610e0d90610e06565b61102d9160016110259299979496989599015490611e2d565b845190611f27565b9485159460005b855181101561107b5760008080808b6001600160a01b03611055878d611e19565b5116828d611072575bf1156105195761106d90611e57565b611034565b506108fc61105e565b50969295509093509150610e0d8680611000565b5082511515610ffb565b966000969492959391965b86518110156110f15760008080806001600160a01b036110c4868d611e19565b511660018d0154908282156110e8575bf115610519576110e390611e57565b6110a4565b506108fc6110d4565b509695909294919395610ff0565b82516001600160a01b031681830155602090920191600101610fcf565b61113790600685016000528260206000209182019101611e40565b89610fbb565b82516001600160a01b031681830155602090920191600101610f82565b61117590600785016000528260206000209182019101611e40565b89610f6e565b92509350503d806000833e6111908183611b7f565b81016060828203126101fd5781519160208101516001600160401b0381116101fd57826111be918301611f47565b9160408201516001600160401b0381116101fd576111dc9201611f47565b919091938a610dda565b82546001600160a01b03168452600180840154602086015288955060409094019360029093019290910190610d64565b60405162461bcd60e51b81526020600482015260116024820152702837b7b61034b9903737ba1037b832b71760791b6044820152606490fd5b60405162461bcd60e51b81526020600482015260186024820152772837b7b61034b9903737ba103cb2ba1036b0ba3ab932b21760411b6044820152606490fd5b8135815260209182019101610c7d565b346101fd5760203660031901126101fd576112b8611bd2565b600435600955005b346101fd5760003660031901126101fd576020600754604051908152f35b346101fd5760203660031901126101fd576112f7611bd2565b600435600755005b346101fd5760203660031901126101fd5761135160043561131e61214a565b50611327612207565b5061135f61133d61133783612177565b92612252565b604051938493604085526040850190611a00565b90838203602085015261191e565b0390f35b346101fd5760003660031901126101fd576020600854604051908152f35b346101fd5760203660031901126101fd5760043560005260026020526040600020805461135f60096001840154936114066002820154600383015460ff600485015416916113e56008860154956113de6040518099819301611a97565b0387611b7f565b6040519889988952602089015260408801526060870152608086019061188c565b60a084015260e060c084015260e08301906118f9565b346101fd5760003660031901126101fd576000546040516001600160a01b039091168152602090f35b346101fd5760203660031901126101fd576004356001600160a01b038116908190036101fd57611473611bd2565b600580546001600160a01b031916919091179055005b346101fd5760003660031901126101fd5761135f6114a5612391565b60405191829182611851565b346101fd5760003660031901126101fd576020600a54604051908152f35b346101fd5760203660031901126101fd576114e8611bd2565b600435600a55005b346101fd5760203660031901126101fd5761135f61150f600435612177565b604051918291602083526020830190611a00565b346101fd5760003660031901126101fd5761153c611bd2565b600080546001600160a01b0319811682556001600160a01b03167f8be0079c531659141344cd1fd0a4f28419497f9722a3daafe3b4186f6b6457e08280a3005b346101fd5760203660031901126101fd57611595611bd2565b600435600855005b346101fd5760203660031901126101fd57600a5460043560018201808311610afb576115d7826115d26115de93604096611f27565b611e2d565b8092611f1a565b82519182526020820152f35b346101fd5760003660031901126101fd576020600654604051908152f35b346101fd5760003660031901126101fd576040517f00000000000000000000000000000000000000000000000000000000000000006001600160a01b03168152602090f35b346101fd5760003660031901126101fd576006548015611685576000808080938160065560018060a01b036005541682f11561051957005b60405162461bcd60e51b815260206004820152601d60248201527f496e73756666696369656e74205472616e7366657220416d6f756e742e0000006044820152606490fd5b346101fd5760003660031901126101fd576005546040516001600160a01b039091168152602090f35b346101fd5760203660031901126101fd5761135f611712600435612252565b60405191829160208352602083019061191e565b346101fd5760003660031901126101fd576020600954604051908152f35b346101fd5760003660031901126101fd5761175d612391565b60009060005b81518110156117b3576117768183611e19565b51600052600260205242600360406000200154111561179e575b61179990611e57565b611763565b916117ab61179991611e57565b929050611790565b506117bd82611ba0565b916117cb6040519384611b7f565b8083526117da601f1991611ba0565b0190602091368385013760009060005b8151811015611847578061180161181e9284611e19565b516000526002855242600360406000200154111561182357611e57565b6117ea565b61182d8184611e19565b5161184161183a86611e57565b9588611e19565b52611e57565b6040518061135f87825b6020908160408183019282815285518094520193019160005b828110611878575050505090565b83518552938101939281019260010161186a565b906003821015610b115752565b90815180825260208080930193019160005b8281106118b9575050505090565b83516001600160a01b0316855293810193928101926001016118ab565b60005b8381106118e95750506000910152565b81810151838201526020016118d9565b90602091611912815180928185528580860191016118d6565b601f01601f1916010190565b91906101409283820181518352602090818301518285015260409182840151838601526060840151606086015261195d6080850151608087019061188c565b60a08401519660a086015286518092528061016086019701926000905b8382106119d75750505050506119b56119a36119d4949560c084015185820360c0870152611899565b60e083015184820360e0860152611899565b91610100808301519082015261012080920151918184039101526118f9565b90565b845180516001600160a01b03168a5283015189840152978801979382019360019091019061197a565b906080611a2b611a19845160a0855260a08501906118f9565b602085015184820360208601526118f9565b9260018060a01b0380604083015116604085015260608201511660608401520151906002821015610b11576080015290565b90600182811c92168015611a8d575b6020831014611a7757565b634e487b7160e01b600052602260045260246000fd5b91607f1691611a6c565b9060009291805491611aa883611a5d565b918282526001938481169081600014611b0a5750600114611aca575b50505050565b90919394506000526020928360002092846000945b838610611af6575050505001019038808080611ac4565b805485870183015294019385908201611adf565b9294505050602093945060ff191683830152151560051b01019038808080611ac4565b604081019081106001600160401b038211176109df57604052565b61014081019081106001600160401b038211176109df57604052565b60a081019081106001600160401b038211176109df57604052565b90601f801991011681019081106001600160401b038211176109df57604052565b6001600160401b0381116109df5760051b60200190565b6001600160401b0381116109df57601f01601f191660200190565b6000546001600160a01b03163303611be657565b606460405162461bcd60e51b815260206004820152602060248201527f4f776e61626c653a2063616c6c6572206973206e6f7420746865206f776e65726044820152fd5b15611c3157565b60405162461bcd60e51b815260206004820152603060248201527f496e76616c6964207374616b6520616d6f756e7421204d75737420626520677260448201526f32b0ba32b9103a3430b7103d32b9379760811b6064820152608490fd5b81601f820112156101fd578051611ca581611bb7565b92611cb36040519485611b7f565b818452602082840101116101fd576119d491602080850191016118d6565b51906001600160a01b03821682036101fd57565b906020828203126101fd5781516001600160401b03928382116101fd570160a0818303126101fd5760405192611d1a84611b64565b81518181116101fd5783611d2f918401611c8f565b845260208201519081116101fd57608092611d4b918301611c8f565b6020840152611d5c60408201611cd1565b6040840152611d6d60608201611cd1565b6060840152015160028110156101fd57608082015290565b91908201809211610afb57565b908160209103126101fd575180151581036101fd5790565b15611db157565b60405162461bcd60e51b815260206004820152601b60248201527f496e76616c696420706172616d73206f722070726f706f73616c2e00000000006044820152606490fd5b805115611e035760200190565b634e487b7160e01b600052603260045260246000fd5b8051821015611e035760209160051b010190565b81810292918115918404141715610afb57565b818110611e4b575050565b60008155600101611e40565b6000198114610afb5760010190565b600354811015611e0357600360005260206000200190600090565b600081815260046020526040812054611ef957600354600160401b811015611ee5579082611ed1611eba84600160409601600355611e66565b819391549060031b91821b91600019901b19161790565b905560035492815260046020522055600190565b634e487b7160e01b82526041600452602482fd5b905090565b8054821015611e035760005260206000209060011b0190600090565b91908203918211610afb57565b8115611f31570490565b634e487b7160e01b600052601260045260246000fd5b81601f820112156101fd57805191611f5e83611ba0565b92611f6c6040519485611b7f565b808452602092838086019260051b8201019283116101fd578301905b828210611f96575050505090565b838091611fa284611cd1565b815201910190611f88565b90815480825260208092019260005281600020916000905b828210611fd3575050505090565b83546001600160a01b031685529384019360019384019390910190611fc5565b600060443d106119d457604051600319913d83016004833e81516001600160401b03918282113d60248401111761205057818401948551938411612058573d8501016020848701011161205057506119d492910160200190611b7f565b949350505050565b50949350505050565b6000908082526004908160205260408320548015156000146121445760001990808201818111612131576003549083820191821161211e578082036120eb575b50505060035480156120d8578101906120b982611e66565b909182549160031b1b1916905560035582526020526040812055600190565b634e487b7160e01b855260318452602485fd5b6121096120fa611eba93611e66565b90549060031b1c928392611e66565b905585528360205260408520553880806120a1565b634e487b7160e01b875260118652602487fd5b634e487b7160e01b865260118552602486fd5b50505090565b6040519061215782611b64565b600060808360608152606060208201528260408201528260608201520152565b61217f61214a565b506000908152600260205260408082205490516338b2c44b60e11b8152600481019190915281816024817f00000000000000000000000000000000000000000000000000000000000000006001600160a01b03165afa9182156121fb5780926121e757505090565b6119d492503d8091833e61053a8183611b7f565b604051903d90823e3d90fd5b6040519061221482611b48565b606061012083600080825280602083015280604083015280848301528060808301528360a08301528360c08301528360e08301526101008201520152565b61225a612207565b50600090815260026020918183526040908181209282519461227b86611b48565b84548652600191828601548288015280860154858801526003860154606088015260ff600487015416600381101561237d576080880152600586018054926122c284611ba0565b956122cf88519788611b7f565b8487529182528082208187015b85841061234957505050505050509161024a6123409260099460a0870152805161230d8161024a8160068801611fad565b60c087015280516123258161024a8160078801611fad565b60e08701526008830154610100870152518094819301611a97565b61012082015290565b848388928b5161235881611b2d565b85546001600160a01b03168152848601548382015281529590920194920191016122dc565b634e487b7160e01b85526021600452602485fd5b604051906003548083528260209182820190600360005283600020936000905b8282106123c9575050506123c792500383611b7f565b565b8554845260019586019588955093810193909101906123b156fea2646970667358221220b4e458a26abee7b2fba71a10dae183303a7c1e2ad802cfdd2dc99bc3ae46f06f64736f6c63430008130033",
  "linkReferences": {},
  "deployedLinkReferences": {}
}